{
  "_format": "hh3-artifact-1",
  "contractName": "ProjectFactory",
  "sourceName": "contracts/ProjectFactory.sol",
  "abi": [
    {
      "inputs": [
        {
          "internalType": "address",
          "name": "_nftContract",
          "type": "address"
        }
      ],
      "stateMutability": "nonpayable",
      "type": "constructor"
    },
    {
      "anonymous": false,
      "inputs": [
        {
          "indexed": false,
          "internalType": "address",
          "name": "projectAddress",
          "type": "address"
        },
        {
          "indexed": false,
          "internalType": "address",
          "name": "owner",
          "type": "address"
        },
        {
          "indexed": false,
          "internalType": "uint256",
          "name": "target",
          "type": "uint256"
        }
      ],
      "name": "ProjectCreated",
      "type": "event"
    },
    {
      "inputs": [
        {
          "internalType": "address",
          "name": "_token",
          "type": "address"
        },
        {
          "internalType": "uint256",
          "name": "_target",
          "type": "uint256"
        },
        {
          "internalType": "uint256",
          "name": "_deadline",
          "type": "uint256"
        }
      ],
      "name": "createProject",
      "outputs": [],
      "stateMutability": "nonpayable",
      "type": "function"
    },
    {
      "inputs": [
        {
          "internalType": "uint256",
          "name": "",
          "type": "uint256"
        }
      ],
      "name": "deployedProjects",
      "outputs": [
        {
          "internalType": "address",
          "name": "",
          "type": "address"
        }
      ],
      "stateMutability": "view",
      "type": "function"
    },
    {
      "inputs": [],
      "name": "getProjects",
      "outputs": [
        {
          "internalType": "address[]",
          "name": "",
          "type": "address[]"
        }
      ],
      "stateMutability": "view",
      "type": "function"
    },
    {
      "inputs": [],
      "name": "nftContract",
      "outputs": [
        {
          "internalType": "address",
          "name": "",
          "type": "address"
        }
      ],
      "stateMutability": "view",
      "type": "function"
    }
  ],
  "bytecode": "0x6080604052348015600e575f5ffd5b50604051611666380380611666833981016040819052602b91604f565b600180546001600160a01b0319166001600160a01b0392909216919091179055607a565b5f60208284031215605e575f5ffd5b81516001600160a01b03811681146073575f5ffd5b9392505050565b6115df806100875f395ff3fe608060405234801561000f575f5ffd5b506004361061004a575f3560e01c80639ec6deaf1461004e578063bad4a2c51461007e578063d56d229d14610093578063dcc60128146100a6575b5f5ffd5b61006161005c366004610304565b6100bb565b6040516001600160a01b0390911681526020015b60405180910390f35b61009161008c36600461031b565b6100e2565b005b600154610061906001600160a01b031681565b6100ae610298565b6040516100759190610358565b5f81815481106100c9575f80fd5b5f918252602090912001546001600160a01b0316905081565b60015460405163785f8ee360e01b81523360048201526001600160a01b039091169063785f8ee390602401602060405180830381865afa158015610128573d5f5f3e3d5ffd5b505050506040513d601f19601f8201168201806040525081019061014c91906103a3565b6101b85760405162461bcd60e51b815260206004820152603360248201527f446576692065737365726520756e20456e746520636572746966696361746f20604482015272706572206372656172652070726f676574746960681b606482015260840160405180910390fd5b5f338484846040516101c9906102f7565b6001600160a01b03948516815293909216602084015260408301526060820152608001604051809103905ff080158015610205573d5f5f3e3d5ffd5b505f80546001810182559080527f290decd9548b62a8d60345a988386fc84ba6bc95484008f6362f93160ef3e5630180546001600160a01b0319166001600160a01b0383169081179091556040805191825233602083015281018590529091507f3f7f2605a4860b57de4b2bb7500ef93af42fbcdac9c6d8a0f71a8134e45823b09060600160405180910390a150505050565b60605f8054806020026020016040519081016040528092919081815260200182805480156102ed57602002820191905f5260205f20905b81546001600160a01b031681526001909101906020018083116102cf575b5050505050905090565b6111e0806103ca83390190565b5f60208284031215610314575f5ffd5b5035919050565b5f5f5f6060848603121561032d575f5ffd5b83356001600160a01b0381168114610343575f5ffd5b95602085013595506040909401359392505050565b602080825282518282018190525f918401906040840190835b818110156103985783516001600160a01b0316835260209384019390920191600101610371565b509095945050505050565b5f602082840312156103b3575f5ffd5b815180151581146103c2575f5ffd5b939250505056fe608060405234801561000f575f5ffd5b506040516111e03803806111e083398101604081905261002e91610115565b836001600160a01b03811661005c57604051631e4fbdf760e01b81525f600482015260240160405180910390fd5b610065816100ab565b50600180546001600160a01b0319166001600160a01b039490941693909317909255600255600355505f600481905560058190556006805460ff19169055600755610155565b5f80546001600160a01b038381166001600160a01b0319831681178455604051919092169283917f8be0079c531659141344cd1fd0a4f28419497f9722a3daafe3b4186f6b6457e09190a35050565b80516001600160a01b0381168114610110575f5ffd5b919050565b5f5f5f5f60808587031215610128575f5ffd5b610131856100fa565b935061013f602086016100fa565b6040860151606090960151949790965092505050565b61107e806101625f395ff3fe608060405234801561000f575f5ffd5b5060043610610111575f3560e01c8063953b8fb81161009e578063f14faf6f1161006e578063f14faf6f14610261578063f2fde38b14610274578063fb346eab14610287578063fc0c546a14610290578063ff95fa71146102a3575f5ffd5b8063953b8fb814610229578063c9d27afe14610232578063da7620a314610245578063e29eb83614610258575f5ffd5b80636e417c69116100e45780636e417c6914610199578063715018a6146101ae5780637f24944f146101b657806381d12c58146101c35780638da5cb5b14610205575f5ffd5b806325c302e41461011557806329dcb0cf146101315780632bc3d7aa1461013a578063438596321461016c575b5f5ffd5b61011e60075481565b6040519081526020015b60405180910390f35b61011e60035481565b61015c610148366004610eee565b60096020525f908152604090205460ff1681565b6040519015158152602001610128565b61015c61017a366004610f0e565b600a60209081525f928352604080842090915290825290205460ff1681565b6101ac6101a7366004610f38565b6102b6565b005b6101ac610570565b60065461015c9060ff1681565b6101d66101d1366004610f38565b610583565b6040805196875260208701959095529385019290925215156060840152608083015260a082015260c001610128565b5f546001600160a01b03165b6040516001600160a01b039091168152602001610128565b61011e60025481565b6101ac610240366004610f5c565b6105cd565b6101ac610253366004610f38565b6107a5565b61011e60045481565b6101ac61026f366004610f38565b610a3e565b6101ac610282366004610eee565b610d06565b61011e60055481565b600154610211906001600160a01b031681565b6101ac6102b1366004610f8a565b610d40565b6102be610e58565b5f600882815481106102d2576102d2610faa565b5f9182526020909120600690910201600381015490915060ff161561032e5760405162461bcd60e51b815260206004820152600d60248201526c4769612720657365677569746160981b60448201526064015b60405180910390fd5b5f816005015442101590505f8260020154836001015461034e9190610fd2565b60075461035b9190610feb565b600184015460028501549181119250101582158015610378575081155b156103ed576040805162461bcd60e51b81526020600482015260248101919091527f566f74617a696f6e6520616e636f726120696e20636f72736f2065206d61676760448201527f696f72616e7a61206d6174656d6174696361206e6f6e207261676769756e74616064820152608401610325565b8280156103f8575080155b15610442576006805460ff191690556040518581527f1fdac08e93f72ff55b24ebdf4152b7f56b98982fe9249639c1010cc52aebccd6906020015b60405180910390a15050505050565b6001546001600160a01b031663a9059cbb6104645f546001600160a01b031690565b865460405160e084901b6001600160e01b03191681526001600160a01b03909216600483015260248201526044016020604051808303815f875af11580156104ae573d5f5f3e3d5ffd5b505050506040513d601f19601f820116820180604052508101906104d29190610ffe565b6105165760405162461bcd60e51b815260206004820152601560248201527454726173666572696d656e746f2066616c6c69746f60581b6044820152606401610325565b60038401805460ff191660011790558354600580545f90610538908490610fd2565b90915550506040518581527fe78cc898d3a084e2554c1addbb022ecded14709a7ae0c1a85cb965d9e91d73d390602001610433565b50565b610578610e58565b6105815f610e84565b565b60088181548110610592575f80fd5b5f9182526020909120600690910201805460018201546002830154600384015460048501546005909501549395509193909260ff9092169186565b335f9081526009602052604090205460ff1661062b5760405162461bcd60e51b815260206004820152601e60248201527f536f6c6f206920646f6e61746f726920706f73736f6e6f20766f7461726500006044820152606401610325565b5f828152600a6020908152604080832033845290915290205460ff16156106865760405162461bcd60e51b815260206004820152600f60248201526e486169206769612720766f7461746f60881b6044820152606401610325565b5f6008838154811061069a5761069a610faa565b5f9182526020909120600690910201600381015490915060ff16156106f65760405162461bcd60e51b815260206004820152601260248201527153706573612067696120657365677569746160701b6044820152606401610325565b8060050154421061073f5760405162461bcd60e51b8152602060048201526013602482015272566f74617a696f6e65207465726d696e61746160681b6044820152606401610325565b8115610764576001816001015f8282546107599190610fd2565b9091555061077e9050565b6001816002015f8282546107789190610fd2565b90915550505b50505f908152600a602090815260408083203384529091529020805460ff19166001179055565b6107ad610e58565b60065460ff16156108315760405162461bcd60e51b815260206004820152604260248201527f457369737465206769612720756e6120737065736120617070726f766174612c60448201527f206e6f6e20616e636f726120636f6e6665726d61746120636f6e206661747475606482015261726160f01b608482015260a401610325565b60025460045410158061084657506003544210155b6108925760405162461bcd60e51b815260206004820152601a60248201527f50726f676574746f206e6f6e20616e636f72612061747469766f0000000000006044820152606401610325565b6001546040516370a0823160e01b81523060048201526001600160a01b03909116906370a0823190602401602060405180830381865afa1580156108d8573d5f5f3e3d5ffd5b505050506040513d601f19601f820116820180604052508101906108fc9190611019565b81111561094b5760405162461bcd60e51b815260206004820152601d60248201527f466f6e646920696e73756666696369656e7469206e656c207661756c740000006044820152606401610325565b60086040518060c001604052808381526020015f81526020015f81526020015f151581526020015f5f1b8152602001426203f4806109899190610fd2565b90528154600181810184555f93845260209384902083516006938402909101908155938301518482015560408301516002850155606083015160038501805491151560ff199283161790556080840151600486015560a0909301516005909401939093558054909116821790556008547f99f063607b2d9f794eb8985daf4a0d3224e73b48e43228a183329e415dff077e91610a2491610feb565b60408051918252602082018490520160405180910390a150565b5f546001600160a01b03163303610aaa5760405162461bcd60e51b815260206004820152602a60248201527f4c27456e7465206e6f6e2070756f2720646f6e61726520616c2070726f7072696044820152696f2070726f676574746f60b01b6064820152608401610325565b6003544210610afb5760405162461bcd60e51b815260206004820152601860248201527f526163636f6c746120666f6e6469207465726d696e61746100000000000000006044820152606401610325565b60025460045410610b5a5760405162461bcd60e51b8152602060048201526024808201527f4f626965747469766f20646920726163636f6c74612067696127207261676769604482015263756e746f60e01b6064820152608401610325565b60025481600454610b6b9190610fd2565b1115610bb95760405162461bcd60e51b815260206004820152601c60248201527f446f6e617a696f6e6520656363656465206c276f626965747469766f000000006044820152606401610325565b6001546040516323b872dd60e01b8152336004820152306024820152604481018390526001600160a01b03909116906323b872dd906064016020604051808303815f875af1158015610c0d573d5f5f3e3d5ffd5b505050506040513d601f19601f82011682018060405250810190610c319190610ffe565b610c755760405162461bcd60e51b815260206004820152601560248201527454726173666572696d656e746f2066616c6c69746f60581b6044820152606401610325565b335f9081526009602052604090205460ff16610cb857335f908152600960205260408120805460ff191660011790556007805491610cb283611030565b91905055505b8060045f828254610cc99190610fd2565b909155505060405181815233907f2a01595cddf097c90216094025db714da3f4e5bd8877b56ba86a24ecead8e5439060200160405180910390a250565b610d0e610e58565b6001600160a01b038116610d3757604051631e4fbdf760e01b81525f6004820152602401610325565b61056d81610e84565b610d48610e58565b5f60088381548110610d5c57610d5c610faa565b5f9182526020909120600690910201600381015490915060ff16610dc25760405162461bcd60e51b815260206004820152601960248201527f5370657361206e6f6e20616e636f7261206573656775697461000000000000006044820152606401610325565b81610e0f5760405162461bcd60e51b815260206004820152601760248201527f486173682066617474757261206e6f6e2076616c69646f0000000000000000006044820152606401610325565b600481018290556006805460ff191690556040518381527f3a119f7ba8b2d0b50b2052497850fdad1464c8f48288498812ad2673e06f6c839060200160405180910390a1505050565b5f546001600160a01b031633146105815760405163118cdaa760e01b8152336004820152602401610325565b5f80546001600160a01b038381166001600160a01b0319831681178455604051919092169283917f8be0079c531659141344cd1fd0a4f28419497f9722a3daafe3b4186f6b6457e09190a35050565b80356001600160a01b0381168114610ee9575f5ffd5b919050565b5f60208284031215610efe575f5ffd5b610f0782610ed3565b9392505050565b5f5f60408385031215610f1f575f5ffd5b82359150610f2f60208401610ed3565b90509250929050565b5f60208284031215610f48575f5ffd5b5035919050565b801515811461056d575f5ffd5b5f5f60408385031215610f6d575f5ffd5b823591506020830135610f7f81610f4f565b809150509250929050565b5f5f60408385031215610f9b575f5ffd5b50508035926020909101359150565b634e487b7160e01b5f52603260045260245ffd5b634e487b7160e01b5f52601160045260245ffd5b80820180821115610fe557610fe5610fbe565b92915050565b81810381811115610fe557610fe5610fbe565b5f6020828403121561100e575f5ffd5b8151610f0781610f4f565b5f60208284031215611029575f5ffd5b5051919050565b5f6001820161104157611041610fbe565b506001019056fea2646970667358221220bebc622184d43d44870d771400c5dd4e27a56e7222ac6f46aaa41919c154155864736f6c634300081c0033a2646970667358221220d042e092c6054ffe4506c7562e2a0ef5b04d15fe5add6dad24971dc3202bb84864736f6c634300081c0033",
  "linkReferences": {},
  "deployedLinkReferences": {},
  "immutableReferences": {},
  "inputSourceName": "project/contracts/ProjectFactory.sol",
  "buildInfoId": "solc-0_8_28-641d0a093f514ec97e2051ed03c81c98a2876621"
}